{
  "contractName": "Ico",
  "abi": [
    {
      "inputs": [
        {
          "internalType": "address",
          "name": "",
          "type": "address"
        }
      ],
      "name": "balances",
      "outputs": [
        {
          "internalType": "uint256",
          "name": "",
          "type": "uint256"
        }
      ],
      "stateMutability": "view",
      "type": "function",
      "constant": true
    },
    {
      "inputs": [],
      "name": "tokenPrice",
      "outputs": [
        {
          "internalType": "uint256",
          "name": "",
          "type": "uint256"
        }
      ],
      "stateMutability": "view",
      "type": "function",
      "constant": true
    },
    {
      "inputs": [
        {
          "internalType": "uint256",
          "name": "_ethAmount",
          "type": "uint256"
        }
      ],
      "name": "buyTokens",
      "outputs": [],
      "stateMutability": "nonpayable",
      "type": "function"
    },
    {
      "inputs": [
        {
          "internalType": "uint256",
          "name": "_newTokenPrice",
          "type": "uint256"
        }
      ],
      "name": "changeTokenPrice",
      "outputs": [],
      "stateMutability": "nonpayable",
      "type": "function"
    }
  ],
  "bytecode": "0x6080604052600160005534801561001557600080fd5b5061034c806100256000396000f3fe608060405234801561001057600080fd5b506004361061004c5760003560e01c806327e235e3146100515780633610724e146100815780637ff9b5961461009d578063fbc94f24146100bb575b600080fd5b61006b600480360381019061006691906101d3565b6100d7565b6040516100789190610219565b60405180910390f35b61009b60048036038101906100969190610260565b6100ef565b005b6100a5610144565b6040516100b29190610219565b60405180910390f35b6100d560048036038101906100d09190610260565b61014a565b005b60016020528060005260406000206000915090505481565b60006100fa82610154565b905080600160003373ffffffffffffffffffffffffffffffffffffffff1673ffffffffffffffffffffffffffffffffffffffff168152602001908152602001600020819055505050565b60005481565b8060008190555050565b6000806000548361016591906102bc565b905080915050919050565b600080fd5b600073ffffffffffffffffffffffffffffffffffffffff82169050919050565b60006101a082610175565b9050919050565b6101b081610195565b81146101bb57600080fd5b50565b6000813590506101cd816101a7565b92915050565b6000602082840312156101e9576101e8610170565b5b60006101f7848285016101be565b91505092915050565b6000819050919050565b61021381610200565b82525050565b600060208201905061022e600083018461020a565b92915050565b61023d81610200565b811461024857600080fd5b50565b60008135905061025a81610234565b92915050565b60006020828403121561027657610275610170565b5b60006102848482850161024b565b91505092915050565b7f4e487b7100000000000000000000000000000000000000000000000000000000600052601160045260246000fd5b60006102c782610200565b91506102d283610200565b9250817fffffffffffffffffffffffffffffffffffffffffffffffffffffffffffffffff048311821515161561030b5761030a61028d565b5b82820290509291505056fea26469706673582212209791f46852a1562f60873ae672ebda83b62a70241dac7e3149e6cd7daa7f2e6a64736f6c634300080d0033",
  "immutableReferences": {},
  "source": "// SPDX-License-Identifier: MIT\r\npragma solidity ^0.8.13;\r\n\r\ncontract Ico {\r\n    uint public tokenPrice = 1;\r\n\r\n    // constructor () {\r\n    //     \r\n    // }\r\n\r\n    mapping(address => uint) public balances; // keep track of how many tokens each address should have\r\n\r\n    function buyTokens(uint _ethAmount) public { // We should change this to msg.value later\r\n        uint amountOfJnsTokens = calculateAmountOfJnsTokens(_ethAmount);\r\n        balances[msg.sender] = amountOfJnsTokens;\r\n    }\r\n\r\n    function calculateAmountOfJnsTokens(uint _ethAmount) view internal returns(uint) {\r\n        uint jnsTokens = _ethAmount * tokenPrice;\r\n        return jnsTokens;\r\n    }\r\n\r\n    function changeTokenPrice(uint _newTokenPrice) public {\r\n        tokenPrice = _newTokenPrice;\r\n    }\r\n}",
  "sourcePath": "C:\\Users\\dr_sa\\source\\SolidityProjects\\simple-ico-2\\contracts\\Ico.sol",
  "compiler": {
    "name": "solc",
    "version": "0.8.13+commit.abaa5c0e.Emscripten.clang"
  },
  "schemaVersion": "3.4.6",
  "updatedAt": "2022-03-29T16:56:12.279Z",
  "networkType": "ethereum",
  "devdoc": {
    "kind": "dev",
    "methods": {},
    "version": 1
  },
  "userdoc": {
    "kind": "user",
    "methods": {},
    "version": 1
  }
}